{
  "_format": "hh-sol-artifact-1",
  "contractName": "BiosurfERC721",
  "sourceName": "contracts/Biosurf.sol",
  "abi": [
    {
      "inputs": [
        {
          "internalType": "string",
          "name": "_name",
          "type": "string"
        },
        {
          "internalType": "string",
          "name": "_symbol",
          "type": "string"
        },
        {
          "internalType": "address",
          "name": "_creator",
          "type": "address"
        }
      ],
      "stateMutability": "nonpayable",
      "type": "constructor"
    },
    {
      "anonymous": false,
      "inputs": [
        {
          "indexed": true,
          "internalType": "address",
          "name": "owner",
          "type": "address"
        },
        {
          "indexed": true,
          "internalType": "address",
          "name": "approved",
          "type": "address"
        },
        {
          "indexed": true,
          "internalType": "uint256",
          "name": "tokenId",
          "type": "uint256"
        }
      ],
      "name": "Approval",
      "type": "event"
    },
    {
      "anonymous": false,
      "inputs": [
        {
          "indexed": true,
          "internalType": "address",
          "name": "owner",
          "type": "address"
        },
        {
          "indexed": true,
          "internalType": "address",
          "name": "operator",
          "type": "address"
        },
        {
          "indexed": false,
          "internalType": "bool",
          "name": "approved",
          "type": "bool"
        }
      ],
      "name": "ApprovalForAll",
      "type": "event"
    },
    {
      "anonymous": false,
      "inputs": [
        {
          "indexed": true,
          "internalType": "address",
          "name": "from",
          "type": "address"
        },
        {
          "indexed": true,
          "internalType": "address",
          "name": "to",
          "type": "address"
        },
        {
          "indexed": true,
          "internalType": "uint256",
          "name": "tokenId",
          "type": "uint256"
        }
      ],
      "name": "Transfer",
      "type": "event"
    },
    {
      "inputs": [
        {
          "internalType": "address",
          "name": "to",
          "type": "address"
        },
        {
          "internalType": "uint256",
          "name": "tokenId",
          "type": "uint256"
        }
      ],
      "name": "approve",
      "outputs": [],
      "stateMutability": "nonpayable",
      "type": "function"
    },
    {
      "inputs": [
        {
          "internalType": "address",
          "name": "owner",
          "type": "address"
        }
      ],
      "name": "balanceOf",
      "outputs": [
        {
          "internalType": "uint256",
          "name": "",
          "type": "uint256"
        }
      ],
      "stateMutability": "view",
      "type": "function"
    },
    {
      "inputs": [],
      "name": "creationTime",
      "outputs": [
        {
          "internalType": "uint256",
          "name": "",
          "type": "uint256"
        }
      ],
      "stateMutability": "view",
      "type": "function"
    },
    {
      "inputs": [],
      "name": "creator",
      "outputs": [
        {
          "internalType": "address",
          "name": "",
          "type": "address"
        }
      ],
      "stateMutability": "view",
      "type": "function"
    },
    {
      "inputs": [
        {
          "internalType": "uint256",
          "name": "tokenId",
          "type": "uint256"
        }
      ],
      "name": "getApproved",
      "outputs": [
        {
          "internalType": "address",
          "name": "",
          "type": "address"
        }
      ],
      "stateMutability": "view",
      "type": "function"
    },
    {
      "inputs": [
        {
          "internalType": "address",
          "name": "owner",
          "type": "address"
        },
        {
          "internalType": "address",
          "name": "operator",
          "type": "address"
        }
      ],
      "name": "isApprovedForAll",
      "outputs": [
        {
          "internalType": "bool",
          "name": "",
          "type": "bool"
        }
      ],
      "stateMutability": "view",
      "type": "function"
    },
    {
      "inputs": [],
      "name": "name",
      "outputs": [
        {
          "internalType": "string",
          "name": "",
          "type": "string"
        }
      ],
      "stateMutability": "view",
      "type": "function"
    },
    {
      "inputs": [],
      "name": "owner",
      "outputs": [
        {
          "internalType": "address",
          "name": "",
          "type": "address"
        }
      ],
      "stateMutability": "view",
      "type": "function"
    },
    {
      "inputs": [
        {
          "internalType": "uint256",
          "name": "tokenId",
          "type": "uint256"
        }
      ],
      "name": "ownerOf",
      "outputs": [
        {
          "internalType": "address",
          "name": "",
          "type": "address"
        }
      ],
      "stateMutability": "view",
      "type": "function"
    },
    {
      "inputs": [
        {
          "internalType": "address",
          "name": "from",
          "type": "address"
        },
        {
          "internalType": "address",
          "name": "to",
          "type": "address"
        },
        {
          "internalType": "uint256",
          "name": "tokenId",
          "type": "uint256"
        }
      ],
      "name": "safeTransferFrom",
      "outputs": [],
      "stateMutability": "nonpayable",
      "type": "function"
    },
    {
      "inputs": [
        {
          "internalType": "address",
          "name": "from",
          "type": "address"
        },
        {
          "internalType": "address",
          "name": "to",
          "type": "address"
        },
        {
          "internalType": "uint256",
          "name": "tokenId",
          "type": "uint256"
        },
        {
          "internalType": "bytes",
          "name": "data",
          "type": "bytes"
        }
      ],
      "name": "safeTransferFrom",
      "outputs": [],
      "stateMutability": "nonpayable",
      "type": "function"
    },
    {
      "inputs": [
        {
          "internalType": "address",
          "name": "operator",
          "type": "address"
        },
        {
          "internalType": "bool",
          "name": "approved",
          "type": "bool"
        }
      ],
      "name": "setApprovalForAll",
      "outputs": [],
      "stateMutability": "nonpayable",
      "type": "function"
    },
    {
      "inputs": [
        {
          "internalType": "bool",
          "name": "_transferable",
          "type": "bool"
        }
      ],
      "name": "setTransferability",
      "outputs": [],
      "stateMutability": "nonpayable",
      "type": "function"
    },
    {
      "inputs": [
        {
          "internalType": "bytes4",
          "name": "interfaceId",
          "type": "bytes4"
        }
      ],
      "name": "supportsInterface",
      "outputs": [
        {
          "internalType": "bool",
          "name": "",
          "type": "bool"
        }
      ],
      "stateMutability": "view",
      "type": "function"
    },
    {
      "inputs": [],
      "name": "symbol",
      "outputs": [
        {
          "internalType": "string",
          "name": "",
          "type": "string"
        }
      ],
      "stateMutability": "view",
      "type": "function"
    },
    {
      "inputs": [
        {
          "internalType": "uint256",
          "name": "tokenId",
          "type": "uint256"
        }
      ],
      "name": "tokenURI",
      "outputs": [
        {
          "internalType": "string",
          "name": "",
          "type": "string"
        }
      ],
      "stateMutability": "view",
      "type": "function"
    },
    {
      "inputs": [
        {
          "internalType": "address",
          "name": "from",
          "type": "address"
        },
        {
          "internalType": "address",
          "name": "to",
          "type": "address"
        },
        {
          "internalType": "uint256",
          "name": "tokenId",
          "type": "uint256"
        }
      ],
      "name": "transferFrom",
      "outputs": [],
      "stateMutability": "nonpayable",
      "type": "function"
    },
    {
      "inputs": [
        {
          "internalType": "address",
          "name": "to",
          "type": "address"
        }
      ],
      "name": "transferOwnership",
      "outputs": [],
      "stateMutability": "nonpayable",
      "type": "function"
    },
    {
      "inputs": [],
      "name": "transferable",
      "outputs": [
        {
          "internalType": "bool",
          "name": "",
          "type": "bool"
        }
      ],
      "stateMutability": "view",
      "type": "function"
    }
  ],
  "bytecode": "0x60806040523480156200001157600080fd5b506040516200191e3803806200191e83398101604081905262000034916200015f565b828260006200004483826200027b565b5060016200005382826200027b565b5050600680546001600160a01b03909316610100026001600160a81b03199093169290921790915550504260075550600880546001600160a01b0319163317905562000347565b634e487b7160e01b600052604160045260246000fd5b600082601f830112620000c257600080fd5b81516001600160401b0380821115620000df57620000df6200009a565b604051601f8301601f19908116603f011681019082821181831017156200010a576200010a6200009a565b816040528381526020925086838588010111156200012757600080fd5b600091505b838210156200014b57858201830151818301840152908201906200012c565b600093810190920192909252949350505050565b6000806000606084860312156200017557600080fd5b83516001600160401b03808211156200018d57600080fd5b6200019b87838801620000b0565b94506020860151915080821115620001b257600080fd5b50620001c186828701620000b0565b604086015190935090506001600160a01b0381168114620001e157600080fd5b809150509250925092565b600181811c908216806200020157607f821691505b6020821081036200022257634e487b7160e01b600052602260045260246000fd5b50919050565b601f8211156200027657600081815260208120601f850160051c81016020861015620002515750805b601f850160051c820191505b8181101562000272578281556001016200025d565b5050505b505050565b81516001600160401b038111156200029757620002976200009a565b620002af81620002a88454620001ec565b8462000228565b602080601f831160018114620002e75760008415620002ce5750858301515b600019600386901b1c1916600185901b17855562000272565b600085815260208120601f198616915b828110156200031857888601518255948401946001909101908401620002f7565b5085821015620003375787850151600019600388901b60f8161c191681555b5050505050600190811b01905550565b6115c780620003576000396000f3fe608060405234801561001057600080fd5b50600436106101215760003560e01c806370a08231116100ad578063b88d4fde11610071578063b88d4fde14610263578063c87b56dd14610276578063d8270dce14610289578063e985e9c514610292578063f2fde38b146102a557600080fd5b806370a08231146102075780638da5cb5b1461022857806392ff0d311461023b57806395d89b4114610248578063a22cb4651461025057600080fd5b8063095ea7b3116100f4578063095ea7b3146101a657806323b872dd146101bb57806342842e0e146101ce5780635948ab63146101e15780636352211e146101f457600080fd5b806301ffc9a71461012657806302d05d3f1461014e57806306fdde031461017e578063081812fc14610193575b600080fd5b610139610134366004611099565b6102b8565b60405190151581526020015b60405180910390f35b6006546101669061010090046001600160a01b031681565b6040516001600160a01b039091168152602001610145565b61018661030a565b6040516101459190611106565b6101666101a1366004611119565b61039c565b6101b96101b436600461114e565b6103c3565b005b6101b96101c9366004611178565b6104dd565b6101b96101dc366004611178565b61050a565b6101b96101ef3660046111c4565b6105f7565b610166610202366004611119565b610655565b61021a6102153660046111df565b6106b5565b604051908152602001610145565b600854610166906001600160a01b031681565b6006546101399060ff1681565b61018661073b565b6101b961025e3660046111fa565b61074a565b6101b9610271366004611243565b610759565b610186610284366004611119565b61083e565b61021a60075481565b6101396102a036600461131f565b6108b2565b6101b96102b33660046111df565b6108e0565b60006001600160e01b031982166380ac58cd60e01b14806102e957506001600160e01b03198216635b5e139f60e01b145b8061030457506301ffc9a760e01b6001600160e01b03198316145b92915050565b60606000805461031990611349565b80601f016020809104026020016040519081016040528092919081815260200182805461034590611349565b80156103925780601f1061036757610100808354040283529160200191610392565b820191906000526020600020905b81548152906001019060200180831161037557829003601f168201915b5050505050905090565b60006103a782610a07565b506000908152600460205260409020546001600160a01b031690565b60006103ce82610655565b9050806001600160a01b0316836001600160a01b0316036104405760405162461bcd60e51b815260206004820152602160248201527f4552433732313a20617070726f76616c20746f2063757272656e74206f776e656044820152603960f91b60648201526084015b60405180910390fd5b336001600160a01b038216148061045c575061045c81336108b2565b6104ce5760405162461bcd60e51b815260206004820152603d60248201527f4552433732313a20617070726f76652063616c6c6572206973206e6f7420746f60448201527f6b656e206f776e6572206f7220617070726f76656420666f7220616c6c0000006064820152608401610437565b6104d88383610a69565b505050565b60065460ff166104ff5760405162461bcd60e51b815260040161043790611383565b6104d8838383610ad7565b6001600160a01b0382163b156105ec5760065460ff1661053c5760405162461bcd60e51b815260040161043790611383565b610547335b82610b07565b6105635760405162461bcd60e51b8152600401610437906113ba565b61057e83838360405180602001604052806000815250610b66565b6001600160a01b03821663f2fde38b336040516001600160e01b031960e084901b1681526001600160a01b039091166004820152602401600060405180830381600087803b1580156105cf57600080fd5b505af11580156105e3573d6000803e3d6000fd5b50505050505050565b6104d8838383610b99565b6008546001600160a01b031633146106425760405162461bcd60e51b815260206004820152600e60248201526d139bdd08185d5d1a1bdc9a5e995960921b6044820152606401610437565b6006805460ff1916911515919091179055565b6000818152600260205260408120546001600160a01b0316806103045760405162461bcd60e51b8152602060048201526018602482015277115490cdcc8c4e881a5b9d985b1a59081d1bdad95b88125160421b6044820152606401610437565b60006001600160a01b03821661071f5760405162461bcd60e51b815260206004820152602960248201527f4552433732313a2061646472657373207a65726f206973206e6f7420612076616044820152683634b21037bbb732b960b91b6064820152608401610437565b506001600160a01b031660009081526003602052604090205490565b60606001805461031990611349565b610755338383610bb4565b5050565b6001600160a01b0383163b1561082c5760065460ff1661078b5760405162461bcd60e51b815260040161043790611383565b610796335b83610b07565b6107b25760405162461bcd60e51b8152600401610437906113ba565b6107be84848484610b66565b6001600160a01b03831663f2fde38b336040516001600160e01b031960e084901b1681526001600160a01b039091166004820152602401600060405180830381600087803b15801561080f57600080fd5b505af1158015610823573d6000803e3d6000fd5b50505050610838565b61083884848484610c82565b50505050565b606061084982610a07565b600061086060408051602081019091526000815290565b9050600081511161088057604051806020016040528060008152506108ab565b8061088a84610cb3565b60405160200161089b929190611403565b6040516020818303038152906040525b9392505050565b6001600160a01b03918216600090815260056020908152604080832093909416825291909152205460ff1690565b6008546001600160a01b0316331461092b5760405162461bcd60e51b815260206004820152600e60248201526d139bdd08185d5d1a1bdc9a5e995960921b6044820152606401610437565b60075461093c90630784ce00611432565b4210156109975760405162461bcd60e51b8152602060048201526024808201527f4f776e657273686970207472616e73666572206e6f7420617661696c61626c65604482015263081e595d60e21b6064820152608401610437565b600880546001600160a01b0319166001600160a01b03831690811790915560405163f2fde38b60e01b81526004810182905263f2fde38b90602401600060405180830381600087803b1580156109ec57600080fd5b505af1158015610a00573d6000803e3d6000fd5b5050505050565b6000818152600260205260409020546001600160a01b0316610a665760405162461bcd60e51b8152602060048201526018602482015277115490cdcc8c4e881a5b9d985b1a59081d1bdad95b88125160421b6044820152606401610437565b50565b600081815260046020526040902080546001600160a01b0319166001600160a01b0384169081179091558190610a9e82610655565b6001600160a01b03167f8c5be1e5ebec7d5bd14f71427d1e84f3dd0314c0f7b2291e5b200ac8c7c3b92560405160405180910390a45050565b610ae033610541565b610afc5760405162461bcd60e51b815260040161043790611453565b6104d8838383610d46565b600080610b1383610655565b9050806001600160a01b0316846001600160a01b03161480610b3a5750610b3a81856108b2565b80610b5e5750836001600160a01b0316610b538461039c565b6001600160a01b0316145b949350505050565b610b71848484610d46565b610b7d84848484610eaa565b6108385760405162461bcd60e51b8152600401610437906114a0565b6104d883838360405180602001604052806000815250610759565b816001600160a01b0316836001600160a01b031603610c155760405162461bcd60e51b815260206004820152601960248201527f4552433732313a20617070726f766520746f2063616c6c6572000000000000006044820152606401610437565b6001600160a01b03838116600081815260056020908152604080832094871680845294825291829020805460ff191686151590811790915591519182527f17307eab39ab6107e8899845ad3d59bd9653f200f220920489ca2b5937696c31910160405180910390a3505050565b610c8b33610790565b610ca75760405162461bcd60e51b815260040161043790611453565b61083884848484610b66565b60606000610cc083610fab565b600101905060008167ffffffffffffffff811115610ce057610ce061122d565b6040519080825280601f01601f191660200182016040528015610d0a576020820181803683370190505b5090508181016020015b600019016f181899199a1a9b1b9c1cb0b131b232b360811b600a86061a8153600a8504945084610d1457509392505050565b826001600160a01b0316610d5982610655565b6001600160a01b031614610d7f5760405162461bcd60e51b8152600401610437906114f2565b6001600160a01b038216610de15760405162461bcd60e51b8152602060048201526024808201527f4552433732313a207472616e7366657220746f20746865207a65726f206164646044820152637265737360e01b6064820152608401610437565b826001600160a01b0316610df482610655565b6001600160a01b031614610e1a5760405162461bcd60e51b8152600401610437906114f2565b600081815260046020908152604080832080546001600160a01b03199081169091556001600160a01b0387811680865260038552838620805460001901905590871680865283862080546001019055868652600290945282852080549092168417909155905184937fddf252ad1be2c89b69c2b068fc378daa952ba7f163c4a11628f55a4df523b3ef91a4505050565b60006001600160a01b0384163b15610fa057604051630a85bd0160e11b81526001600160a01b0385169063150b7a0290610eee903390899088908890600401611537565b6020604051808303816000875af1925050508015610f29575060408051601f3d908101601f19168201909252610f2691810190611574565b60015b610f86573d808015610f57576040519150601f19603f3d011682016040523d82523d6000602084013e610f5c565b606091505b508051600003610f7e5760405162461bcd60e51b8152600401610437906114a0565b805181602001fd5b6001600160e01b031916630a85bd0160e11b149050610b5e565b506001949350505050565b60008072184f03e93ff9f4daa797ed6e38ed64bf6a1f0160401b8310610fea5772184f03e93ff9f4daa797ed6e38ed64bf6a1f0160401b830492506040015b6d04ee2d6d415b85acef81000000008310611016576d04ee2d6d415b85acef8100000000830492506020015b662386f26fc10000831061103457662386f26fc10000830492506010015b6305f5e100831061104c576305f5e100830492506008015b612710831061106057612710830492506004015b60648310611072576064830492506002015b600a83106103045760010192915050565b6001600160e01b031981168114610a6657600080fd5b6000602082840312156110ab57600080fd5b81356108ab81611083565b60005b838110156110d15781810151838201526020016110b9565b50506000910152565b600081518084526110f28160208601602086016110b6565b601f01601f19169290920160200192915050565b6020815260006108ab60208301846110da565b60006020828403121561112b57600080fd5b5035919050565b80356001600160a01b038116811461114957600080fd5b919050565b6000806040838503121561116157600080fd5b61116a83611132565b946020939093013593505050565b60008060006060848603121561118d57600080fd5b61119684611132565b92506111a460208501611132565b9150604084013590509250925092565b8035801515811461114957600080fd5b6000602082840312156111d657600080fd5b6108ab826111b4565b6000602082840312156111f157600080fd5b6108ab82611132565b6000806040838503121561120d57600080fd5b61121683611132565b9150611224602084016111b4565b90509250929050565b634e487b7160e01b600052604160045260246000fd5b6000806000806080858703121561125957600080fd5b61126285611132565b935061127060208601611132565b925060408501359150606085013567ffffffffffffffff8082111561129457600080fd5b818701915087601f8301126112a857600080fd5b8135818111156112ba576112ba61122d565b604051601f8201601f19908116603f011681019083821181831017156112e2576112e261122d565b816040528281528a60208487010111156112fb57600080fd5b82602086016020830137600060208483010152809550505050505092959194509250565b6000806040838503121561133257600080fd5b61133b83611132565b915061122460208401611132565b600181811c9082168061135d57607f821691505b60208210810361137d57634e487b7160e01b600052602260045260246000fd5b50919050565b6020808252601a908201527f546f6b656e207472616e73666572206e6f7420616c6c6f776564000000000000604082015260600190565b60208082526029908201527f5472616e736665722063616c6c6572206973206e6f74206f776e6572206e6f7260408201526808185c1c1c9bdd995960ba1b606082015260800190565b600083516114158184602088016110b6565b8351908301906114298183602088016110b6565b01949350505050565b8082018082111561030457634e487b7160e01b600052601160045260246000fd5b6020808252602d908201527f4552433732313a2063616c6c6572206973206e6f7420746f6b656e206f776e6560408201526c1c881bdc88185c1c1c9bdd9959609a1b606082015260800190565b60208082526032908201527f4552433732313a207472616e7366657220746f206e6f6e20455243373231526560408201527131b2b4bb32b91034b6b83632b6b2b73a32b960711b606082015260800190565b60208082526025908201527f4552433732313a207472616e736665722066726f6d20696e636f72726563742060408201526437bbb732b960d91b606082015260800190565b6001600160a01b038581168252841660208201526040810183905260806060820181905260009061156a908301846110da565b9695505050505050565b60006020828403121561158657600080fd5b81516108ab8161108356fea2646970667358221220846be1ed0ddea4650bdb23bdcf584c8b01c3c70bd6aabd1077bf02608112c22a64736f6c63430008120033",
  "linkReferences": {},
  "deployedLinkReferences": {}
}