{
    "contractName": "ProxyProtocol",
    "abi": [
        {
            "inputs": [],
            "stateMutability": "nonpayable",
            "type": "constructor"
        },
        {
            "inputs": [],
            "name": "getContractAddresses",
            "outputs": [
                {
                    "internalType": "address[]",
                    "name": "",
                    "type": "address[]"
                }
            ],
            "stateMutability": "view",
            "type": "function"
        },
        {
            "inputs": [],
            "name": "getContractCounts",
            "outputs": [
                {
                    "internalType": "uint256",
                    "name": "",
                    "type": "uint256"
                }
            ],
            "stateMutability": "view",
            "type": "function"
        },
        {
            "inputs": [
                {
                    "internalType": "address",
                    "name": "userAddress",
                    "type": "address"
                },
                {
                    "internalType": "address",
                    "name": "nftContractAddress",
                    "type": "address"
                }
            ],
            "name": "getSMSUANCESBalance",
            "outputs": [
                {
                    "internalType": "uint256",
                    "name": "",
                    "type": "uint256"
                }
            ],
            "stateMutability": "view",
            "type": "function"
        },
        {
            "inputs": [],
            "name": "implementation",
            "outputs": [
                {
                    "internalType": "address",
                    "name": "",
                    "type": "address"
                }
            ],
            "stateMutability": "nonpayable",
            "type": "function"
        }
    ],
    "bytecode": "608060405234801561001057600080fd5b50600080546001600160a01b031916331790556121b8806100326000396000f3fe608060405234801561001057600080fd5b506004361061004c5760003560e01c806347a1cb9d146100515780635c60da1b146100685780638f87302a14610088578063953874d21461009b575b600080fd5b6002545b6040519081526020015b60405180910390f35b6100706100b0565b6040516001600160a01b03909116815260200161005f565b610055610096366004610317565b610215565b6100a361028c565b60405161005f919061034a565b3360009081526001602052604081205460ff16156101205760405162461bcd60e51b815260206004820152602360248201527f557365722068617320616c72656164792063726561746564206120636f6e74726044820152621858dd60ea1b606482015260840160405180910390fd5b600080546040516001600160a01b0390911690339061013e906102ee565b608080825260099082015268534d5355414e43455360b81b60a082015260c06020820181905260039082015262534d5360e81b60e08201526001600160a01b0392831660408201529116606082015261010001604051809103906000f0801580156101ad573d6000803e3d6000fd5b506002805460018082019092557f405787fa12a823e0f2b7631cc41b3ba8828b3321ca811111fa75cd3aa3bb5ace0180546001600160a01b0319166001600160a01b038416179055336000908152602082905260409020805460ff1916909117905592915050565b6040516370a0823160e01b81526001600160a01b03838116600483015260009183918216906370a0823190602401602060405180830381865afa158015610260573d6000803e3d6000fd5b505050506040513d601f19601f820116820180604052508101906102849190610397565b949350505050565b606060028054806020026020016040519081016040528092919081815260200182805480156102e457602002820191906000526020600020905b81546001600160a01b031681526001909101906020018083116102c6575b5050505050905090565b611dd2806103b183390190565b80356001600160a01b038116811461031257600080fd5b919050565b6000806040838503121561032a57600080fd5b610333836102fb565b9150610341602084016102fb565b90509250929050565b6020808252825182820181905260009190848201906040850190845b8181101561038b5783516001600160a01b031683529284019291840191600101610366565b50909695505050505050565b6000602082840312156103a957600080fd5b505191905056fe60806040523480156200001157600080fd5b5060405162001dd238038062001dd2833981016040819052620000349162000171565b838360006200004483826200028f565b5060016200005382826200028f565b5050600880546001600160a01b039485166001600160a01b0319918216179091556009805493909416921691909117909155506200035b915050565b634e487b7160e01b600052604160045260246000fd5b600082601f830112620000b757600080fd5b81516001600160401b0380821115620000d457620000d46200008f565b604051601f8301601f19908116603f01168101908282118183101715620000ff57620000ff6200008f565b816040528381526020925086838588010111156200011c57600080fd5b600091505b8382101562000140578582018301518183018401529082019062000121565b600093810190920192909252949350505050565b80516001600160a01b03811681146200016c57600080fd5b919050565b600080600080608085870312156200018857600080fd5b84516001600160401b0380821115620001a057600080fd5b620001ae88838901620000a5565b95506020870151915080821115620001c557600080fd5b50620001d487828801620000a5565b935050620001e56040860162000154565b9150620001f56060860162000154565b905092959194509250565b600181811c908216806200021557607f821691505b6020821081036200023657634e487b7160e01b600052602260045260246000fd5b50919050565b601f8211156200028a57600081815260208120601f850160051c81016020861015620002655750805b601f850160051c820191505b81811015620002865782815560010162000271565b5050505b505050565b81516001600160401b03811115620002ab57620002ab6200008f565b620002c381620002bc845462000200565b846200023c565b602080601f831160018114620002fb5760008415620002e25750858301515b600019600386901b1c1916600185901b17855562000286565b600085815260208120601f198616915b828110156200032c578886015182559484019460019091019084016200030b565b50858210156200034b5787850151600019600388901b60f8161c191681555b5050505050600190811b01905550565b611a67806200036b6000396000f3fe608060405234801561001057600080fd5b50600436106101215760003560e01c806354d7926f116100ad578063a22cb46511610071578063a22cb46514610259578063b88d4fde1461026c578063c87b56dd1461027f578063c8c8fca014610292578063e985e9c51461029d57600080fd5b806354d7926f146102055780636352211e1461021857806370a082311461022b5780638ceb871c1461023e57806395d89b411461025157600080fd5b806323b872dd116100f457806323b872dd146101a357806342842e0e146101b657806342966c68146101c957806349480bbb146101dc5780634b10b05a146101fd57600080fd5b806301ffc9a71461012657806306fdde031461014e578063081812fc14610163578063095ea7b31461018e575b600080fd5b6101396101343660046114fa565b6102b0565b60405190151581526020015b60405180910390f35b610156610302565b6040516101459190611567565b61017661017136600461157a565b610394565b6040516001600160a01b039091168152602001610145565b6101a161019c3660046115aa565b6103bb565b005b6101a16101b13660046115d4565b6104d5565b6101a16101c43660046115d4565b610583565b6101a16101d736600461157a565b61059e565b6101ef6101ea366004611610565b6105cf565b604051908152602001610145565b6101ef6105f5565b6101a1610213366004611639565b61064a565b61017661022636600461157a565b61077a565b6101ef610239366004611610565b610785565b61013961024c36600461157a565b61080b565b61015661088b565b6101a1610267366004611669565b61089a565b6101a161027a3660046116ab565b6108a9565b61015661028d36600461157a565b61095e565b6101ef630966018081565b6101396102ab366004611787565b610969565b60006001600160e01b031982166380ac58cd60e01b14806102e157506001600160e01b03198216635b5e139f60e01b145b806102fc57506301ffc9a760e01b6001600160e01b03198316145b92915050565b606060008054610311906117ba565b80601f016020809104026020016040519081016040528092919081815260200182805461033d906117ba565b801561038a5780601f1061035f5761010080835404028352916020019161038a565b820191906000526020600020905b81548152906001019060200180831161036d57829003601f168201915b5050505050905090565b600061039f82610997565b506000908152600460205260409020546001600160a01b031690565b60006103c6826109f6565b9050806001600160a01b0316836001600160a01b0316036104385760405162461bcd60e51b815260206004820152602160248201527f4552433732313a20617070726f76616c20746f2063757272656e74206f776e656044820152603960f91b60648201526084015b60405180910390fd5b336001600160a01b038216148061045457506104548133610969565b6104c65760405162461bcd60e51b815260206004820152603d60248201527f4552433732313a20617070726f76652063616c6c6572206973206e6f7420746f60448201527f6b656e206f776e6572206f7220617070726f76656420666f7220616c6c000000606482015260840161042f565b6104d08383610a56565b505050565b6104e0335b82610aa1565b6104fc5760405162461bcd60e51b815260040161042f906117f4565b60405163233ae1c760e21b8152600481018290523090638ceb871c90602401602060405180830381865afa158015610538573d6000803e3d6000fd5b505050506040513d601f19601f8201168201806040525081019061055c9190611845565b6105785760405162461bcd60e51b815260040161042f90611862565b6104d0838383610b00565b6104d0838383604051806020016040528060008152506108a9565b6105a7336104da565b6105c35760405162461bcd60e51b815260040161042f906118a3565b6105cc81610b30565b50565b6000806105db60075490565b90506105e78382610b4a565b6102fc600780546001019055565b60008061060160075490565b60095490915061061a906001600160a01b031682610b4a565b6106286309660180426118f0565b6000828152600a6020526040902055610645600780546001019055565b919050565b6008546001600160a01b031633146106af5760405162461bcd60e51b815260206004820152602260248201527f534d5355414e4345533a2063616c6c6572206973206e6f74207468652061646d60448201526134b760f11b606482015260840161042f565b6000828152600a602052604090205442101561071d5760405162461bcd60e51b815260206004820152602760248201527f534d5355414e4345533a20746f6b656e206973206c6f636b656420666f7220746044820152663930b739b332b960c91b606482015260840161042f565b6040516354d7926f60e01b815260048101839052811515602482015230906354d7926f90604401600060405180830381600087803b15801561075e57600080fd5b505af1158015610772573d6000803e3d6000fd5b505050505050565b60006102fc826109f6565b60006001600160a01b0382166107ef5760405162461bcd60e51b815260206004820152602960248201527f4552433732313a2061646472657373207a65726f206973206e6f7420612076616044820152683634b21037bbb732b960b91b606482015260840161042f565b506001600160a01b031660009081526003602052604090205490565b60405163233ae1c760e21b8152600481018290526000903090638ceb871c90602401602060405180830381865afa15801561084a573d6000803e3d6000fd5b505050506040513d601f19601f8201168201806040525081019061086e9190611845565b80156102fc5750506000908152600a602052604090205442101590565b606060018054610311906117ba565b6108a5338383610cd5565b5050565b6108b4335b83610aa1565b6108d05760405162461bcd60e51b815260040161042f906117f4565b60405163233ae1c760e21b8152600481018390523090638ceb871c90602401602060405180830381865afa15801561090c573d6000803e3d6000fd5b505050506040513d601f19601f820116820180604052508101906109309190611845565b61094c5760405162461bcd60e51b815260040161042f90611862565b61095884848484610da3565b50505050565b60606102fc82610dd4565b6001600160a01b03918216600090815260056020908152604080832093909416825291909152205460ff1690565b6000818152600260205260409020546001600160a01b03166105cc5760405162461bcd60e51b8152602060048201526018602482015277115490cdcc8c4e881a5b9d985b1a59081d1bdad95b88125160421b604482015260640161042f565b6000818152600260205260408120546001600160a01b0316806102fc5760405162461bcd60e51b8152602060048201526018602482015277115490cdcc8c4e881a5b9d985b1a59081d1bdad95b88125160421b604482015260640161042f565b610a608282610edc565b60095460405182916001600160a01b03808616929116907f8c5be1e5ebec7d5bd14f71427d1e84f3dd0314c0f7b2291e5b200ac8c7c3b92590600090a45050565b600080610aad836109f6565b9050806001600160a01b0316846001600160a01b03161480610ad45750610ad48185610969565b80610af85750836001600160a01b0316610aed84610394565b6001600160a01b0316145b949350505050565b610b09336104da565b610b255760405162461bcd60e51b815260040161042f906118a3565b6104d0838383610f4a565b610b39816110ae565b6000908152600a6020526040812055565b6001600160a01b038216610ba05760405162461bcd60e51b815260206004820181905260248201527f4552433732313a206d696e7420746f20746865207a65726f2061646472657373604482015260640161042f565b6000818152600260205260409020546001600160a01b031615610c055760405162461bcd60e51b815260206004820152601c60248201527f4552433732313a20746f6b656e20616c7265616479206d696e74656400000000604482015260640161042f565b6000818152600260205260409020546001600160a01b031615610c6a5760405162461bcd60e51b815260206004820152601c60248201527f4552433732313a20746f6b656e20616c7265616479206d696e74656400000000604482015260640161042f565b6001600160a01b038216600081815260036020908152604080832080546001019055848352600290915280822080546001600160a01b0319168417905551839291907fddf252ad1be2c89b69c2b068fc378daa952ba7f163c4a11628f55a4df523b3ef908290a45050565b816001600160a01b0316836001600160a01b031603610d365760405162461bcd60e51b815260206004820152601960248201527f4552433732313a20617070726f766520746f2063616c6c657200000000000000604482015260640161042f565b6001600160a01b03838116600081815260056020908152604080832094871680845294825291829020805460ff191686151590811790915591519182527f17307eab39ab6107e8899845ad3d59bd9653f200f220920489ca2b5937696c31910160405180910390a3505050565b610dac336108ae565b610dc85760405162461bcd60e51b815260040161042f906118a3565b610958848484846110ee565b6060610ddf82610997565b60008281526006602052604081208054610df8906117ba565b80601f0160208091040260200160405190810160405280929190818152602001828054610e24906117ba565b8015610e715780601f10610e4657610100808354040283529160200191610e71565b820191906000526020600020905b815481529060010190602001808311610e5457829003601f168201915b505050505090506000610e8f60408051602081019091526000815290565b90508051600003610ea1575092915050565b815115610ed3578082604051602001610ebb929190611911565b60405160208183030381529060405292505050919050565b610af884611121565b600081815260046020526040902080546001600160a01b0319166001600160a01b0384169081179091558190610f11826109f6565b6001600160a01b03167f8c5be1e5ebec7d5bd14f71427d1e84f3dd0314c0f7b2291e5b200ac8c7c3b92560405160405180910390a45050565b826001600160a01b0316610f5d826109f6565b6001600160a01b031614610f835760405162461bcd60e51b815260040161042f90611940565b6001600160a01b038216610fe55760405162461bcd60e51b8152602060048201526024808201527f4552433732313a207472616e7366657220746f20746865207a65726f206164646044820152637265737360e01b606482015260840161042f565b826001600160a01b0316610ff8826109f6565b6001600160a01b03161461101e5760405162461bcd60e51b815260040161042f90611940565b600081815260046020908152604080832080546001600160a01b03199081169091556001600160a01b0387811680865260038552838620805460001901905590871680865283862080546001019055868652600290945282852080549092168417909155905184937fddf252ad1be2c89b69c2b068fc378daa952ba7f163c4a11628f55a4df523b3ef91a4505050565b6110b781611195565b600081815260066020526040902080546110d0906117ba565b1590506105cc5760008181526006602052604081206105cc91611496565b6110f9848484610f4a565b6111058484848461122a565b6109585760405162461bcd60e51b815260040161042f90611985565b606061112c82610997565b600061114360408051602081019091526000815290565b90506000815111611163576040518060200160405280600081525061118e565b8061116d8461132b565b60405160200161117e929190611911565b6040516020818303038152906040525b9392505050565b60006111a0826109f6565b90506111ab826109f6565b600083815260046020908152604080832080546001600160a01b03199081169091556001600160a01b0385168085526003845282852080546000190190558785526002909352818420805490911690555192935084927fddf252ad1be2c89b69c2b068fc378daa952ba7f163c4a11628f55a4df523b3ef908390a45050565b60006001600160a01b0384163b1561132057604051630a85bd0160e11b81526001600160a01b0385169063150b7a029061126e9033908990889088906004016119d7565b6020604051808303816000875af19250505080156112a9575060408051601f3d908101601f191682019092526112a691810190611a14565b60015b611306573d8080156112d7576040519150601f19603f3d011682016040523d82523d6000602084013e6112dc565b606091505b5080516000036112fe5760405162461bcd60e51b815260040161042f90611985565b805181602001fd5b6001600160e01b031916630a85bd0160e11b149050610af8565b506001949350505050565b60606000611338836113be565b600101905060008167ffffffffffffffff81111561135857611358611695565b6040519080825280601f01601f191660200182016040528015611382576020820181803683370190505b5090508181016020015b600019016f181899199a1a9b1b9c1cb0b131b232b360811b600a86061a8153600a850494508461138c57509392505050565b60008072184f03e93ff9f4daa797ed6e38ed64bf6a1f0160401b83106113fd5772184f03e93ff9f4daa797ed6e38ed64bf6a1f0160401b830492506040015b6d04ee2d6d415b85acef81000000008310611429576d04ee2d6d415b85acef8100000000830492506020015b662386f26fc10000831061144757662386f26fc10000830492506010015b6305f5e100831061145f576305f5e100830492506008015b612710831061147357612710830492506004015b60648310611485576064830492506002015b600a83106102fc5760010192915050565b5080546114a2906117ba565b6000825580601f106114b2575050565b601f0160209004906000526020600020908101906105cc91905b808211156114e057600081556001016114cc565b5090565b6001600160e01b0319811681146105cc57600080fd5b60006020828403121561150c57600080fd5b813561118e816114e4565b60005b8381101561153257818101518382015260200161151a565b50506000910152565b60008151808452611553816020860160208601611517565b601f01601f19169290920160200192915050565b60208152600061118e602083018461153b565b60006020828403121561158c57600080fd5b5035919050565b80356001600160a01b038116811461064557600080fd5b600080604083850312156115bd57600080fd5b6115c683611593565b946020939093013593505050565b6000806000606084860312156115e957600080fd5b6115f284611593565b925061160060208501611593565b9150604084013590509250925092565b60006020828403121561162257600080fd5b61118e82611593565b80151581146105cc57600080fd5b6000806040838503121561164c57600080fd5b82359150602083013561165e8161162b565b809150509250929050565b6000806040838503121561167c57600080fd5b61168583611593565b9150602083013561165e8161162b565b634e487b7160e01b600052604160045260246000fd5b600080600080608085870312156116c157600080fd5b6116ca85611593565b93506116d860208601611593565b925060408501359150606085013567ffffffffffffffff808211156116fc57600080fd5b818701915087601f83011261171057600080fd5b81358181111561172257611722611695565b604051601f8201601f19908116603f0116810190838211818310171561174a5761174a611695565b816040528281528a602084870101111561176357600080fd5b82602086016020830137600060208483010152809550505050505092959194509250565b6000806040838503121561179a57600080fd5b6117a383611593565b91506117b160208401611593565b90509250929050565b600181811c908216806117ce57607f821691505b6020821081036117ee57634e487b7160e01b600052602260045260246000fd5b50919050565b60208082526031908201527f4552433732313a207472616e736665722063616c6c6572206973206e6f74206f6040820152701ddb995c881b9bdc88185c1c1c9bdd9959607a1b606082015260800190565b60006020828403121561185757600080fd5b815161118e8161162b565b60208082526021908201527f4552433732313a20746f6b656e206973206e6f74207472616e7366657261626c6040820152606560f81b606082015260800190565b6020808252602d908201527f4552433732313a2063616c6c6572206973206e6f7420746f6b656e206f776e6560408201526c1c881bdc88185c1c1c9bdd9959609a1b606082015260800190565b808201808211156102fc57634e487b7160e01b600052601160045260246000fd5b60008351611923818460208801611517565b835190830190611937818360208801611517565b01949350505050565b60208082526025908201527f4552433732313a207472616e736665722066726f6d20696e636f72726563742060408201526437bbb732b960d91b606082015260800190565b60208082526032908201527f4552433732313a207472616e7366657220746f206e6f6e20455243373231526560408201527131b2b4bb32b91034b6b83632b6b2b73a32b960711b606082015260800190565b6001600160a01b0385811682528416602082015260408101839052608060608201819052600090611a0a9083018461153b565b9695505050505050565b600060208284031215611a2657600080fd5b815161118e816114e456fea2646970667358221220afa55588759129faeb526b9b0b5be8040d0a16b5d1c80a76a00e242c7c92dd4d64736f6c63430008130033a2646970667358221220b875d8f4e7998cb0d5c4274064641f839561f756409585402c28839b5d17f84b64736f6c63430008130033",
    "sourcePath": "/workspace/biosurf-api/contracts/contracts/ERC721Proxy.sol",
    "compiler": {
        "name": "solc",
        "version": "0.8.19+commit.7dd6d404"
    },
    "functionHashes": {
        "getContractAddresses()": "953874d2",
        "getContractCounts()": "47a1cb9d",
        "getSMSUANCESBalance(address,address)": "8f87302a",
        "implementation()": "5c60da1b"
    },
    "gasEstimates": {
        "creation": {
            "codeDepositCost": "1726400",
            "executionCost": "26048",
            "totalCost": "1752448"
        },
        "external": {
            "getContractAddresses()": "infinite",
            "getContractCounts()": "2248",
            "getSMSUANCESBalance(address,address)": "infinite",
            "implementation()": "infinite"
        }
    }
}