{
    "contractName": "SMSUANCES",
    "abi": [
        {
            "inputs": [
                {
                    "internalType": "string",
                    "name": "name",
                    "type": "string"
                },
                {
                    "internalType": "string",
                    "name": "symbol",
                    "type": "string"
                },
                {
                    "internalType": "address",
                    "name": "admin",
                    "type": "address"
                },
                {
                    "internalType": "address",
                    "name": "next",
                    "type": "address"
                }
            ],
            "stateMutability": "nonpayable",
            "type": "constructor"
        },
        {
            "anonymous": false,
            "inputs": [
                {
                    "indexed": true,
                    "internalType": "address",
                    "name": "owner",
                    "type": "address"
                },
                {
                    "indexed": true,
                    "internalType": "address",
                    "name": "approved",
                    "type": "address"
                },
                {
                    "indexed": true,
                    "internalType": "uint256",
                    "name": "tokenId",
                    "type": "uint256"
                }
            ],
            "name": "Approval",
            "type": "event"
        },
        {
            "anonymous": false,
            "inputs": [
                {
                    "indexed": true,
                    "internalType": "address",
                    "name": "owner",
                    "type": "address"
                },
                {
                    "indexed": true,
                    "internalType": "address",
                    "name": "operator",
                    "type": "address"
                },
                {
                    "indexed": false,
                    "internalType": "bool",
                    "name": "approved",
                    "type": "bool"
                }
            ],
            "name": "ApprovalForAll",
            "type": "event"
        },
        {
            "anonymous": false,
            "inputs": [
                {
                    "indexed": true,
                    "internalType": "address",
                    "name": "from",
                    "type": "address"
                },
                {
                    "indexed": true,
                    "internalType": "address",
                    "name": "to",
                    "type": "address"
                },
                {
                    "indexed": true,
                    "internalType": "uint256",
                    "name": "tokenId",
                    "type": "uint256"
                }
            ],
            "name": "Transfer",
            "type": "event"
        },
        {
            "inputs": [],
            "name": "TRANSFER_LOCK_TIME",
            "outputs": [
                {
                    "internalType": "uint256",
                    "name": "",
                    "type": "uint256"
                }
            ],
            "stateMutability": "view",
            "type": "function"
        },
        {
            "inputs": [
                {
                    "internalType": "address",
                    "name": "to",
                    "type": "address"
                },
                {
                    "internalType": "uint256",
                    "name": "tokenId",
                    "type": "uint256"
                }
            ],
            "name": "approve",
            "outputs": [],
            "stateMutability": "nonpayable",
            "type": "function"
        },
        {
            "inputs": [
                {
                    "internalType": "address",
                    "name": "owner",
                    "type": "address"
                }
            ],
            "name": "balanceOf",
            "outputs": [
                {
                    "internalType": "uint256",
                    "name": "",
                    "type": "uint256"
                }
            ],
            "stateMutability": "view",
            "type": "function"
        },
        {
            "inputs": [
                {
                    "internalType": "uint256",
                    "name": "tokenId",
                    "type": "uint256"
                }
            ],
            "name": "burn",
            "outputs": [],
            "stateMutability": "nonpayable",
            "type": "function"
        },
        {
            "inputs": [],
            "name": "contractName",
            "outputs": [
                {
                    "internalType": "string",
                    "name": "",
                    "type": "string"
                }
            ],
            "stateMutability": "pure",
            "type": "function"
        },
        {
            "inputs": [],
            "name": "contractSymbol",
            "outputs": [
                {
                    "internalType": "string",
                    "name": "",
                    "type": "string"
                }
            ],
            "stateMutability": "pure",
            "type": "function"
        },
        {
            "inputs": [],
            "name": "create",
            "outputs": [
                {
                    "internalType": "uint256",
                    "name": "",
                    "type": "uint256"
                }
            ],
            "stateMutability": "nonpayable",
            "type": "function"
        },
        {
            "inputs": [
                {
                    "internalType": "uint256",
                    "name": "tokenId",
                    "type": "uint256"
                }
            ],
            "name": "getApproved",
            "outputs": [
                {
                    "internalType": "address",
                    "name": "",
                    "type": "address"
                }
            ],
            "stateMutability": "view",
            "type": "function"
        },
        {
            "inputs": [
                {
                    "internalType": "address",
                    "name": "owner",
                    "type": "address"
                },
                {
                    "internalType": "address",
                    "name": "operator",
                    "type": "address"
                }
            ],
            "name": "isApprovedForAll",
            "outputs": [
                {
                    "internalType": "bool",
                    "name": "",
                    "type": "bool"
                }
            ],
            "stateMutability": "view",
            "type": "function"
        },
        {
            "inputs": [],
            "name": "name",
            "outputs": [
                {
                    "internalType": "string",
                    "name": "",
                    "type": "string"
                }
            ],
            "stateMutability": "view",
            "type": "function"
        },
        {
            "inputs": [
                {
                    "internalType": "uint256",
                    "name": "tokenId",
                    "type": "uint256"
                }
            ],
            "name": "ownerOf",
            "outputs": [
                {
                    "internalType": "address",
                    "name": "",
                    "type": "address"
                }
            ],
            "stateMutability": "view",
            "type": "function"
        },
        {
            "inputs": [
                {
                    "internalType": "address",
                    "name": "from",
                    "type": "address"
                },
                {
                    "internalType": "address",
                    "name": "to",
                    "type": "address"
                },
                {
                    "internalType": "uint256",
                    "name": "tokenId",
                    "type": "uint256"
                }
            ],
            "name": "safeTransferFrom",
            "outputs": [],
            "stateMutability": "nonpayable",
            "type": "function"
        },
        {
            "inputs": [
                {
                    "internalType": "address",
                    "name": "from",
                    "type": "address"
                },
                {
                    "internalType": "address",
                    "name": "to",
                    "type": "address"
                },
                {
                    "internalType": "uint256",
                    "name": "tokenId",
                    "type": "uint256"
                },
                {
                    "internalType": "bytes",
                    "name": "_data",
                    "type": "bytes"
                }
            ],
            "name": "safeTransferFrom",
            "outputs": [],
            "stateMutability": "nonpayable",
            "type": "function"
        },
        {
            "inputs": [
                {
                    "internalType": "address",
                    "name": "operator",
                    "type": "address"
                },
                {
                    "internalType": "bool",
                    "name": "approved",
                    "type": "bool"
                }
            ],
            "name": "setApprovalForAll",
            "outputs": [],
            "stateMutability": "nonpayable",
            "type": "function"
        },
        {
            "inputs": [
                {
                    "internalType": "uint256",
                    "name": "tokenId",
                    "type": "uint256"
                },
                {
                    "internalType": "bool",
                    "name": "transferable",
                    "type": "bool"
                }
            ],
            "name": "setTokenTransferability",
            "outputs": [],
            "stateMutability": "nonpayable",
            "type": "function"
        },
        {
            "inputs": [
                {
                    "internalType": "bytes4",
                    "name": "interfaceId",
                    "type": "bytes4"
                }
            ],
            "name": "supportsInterface",
            "outputs": [
                {
                    "internalType": "bool",
                    "name": "",
                    "type": "bool"
                }
            ],
            "stateMutability": "view",
            "type": "function"
        },
        {
            "inputs": [],
            "name": "symbol",
            "outputs": [
                {
                    "internalType": "string",
                    "name": "",
                    "type": "string"
                }
            ],
            "stateMutability": "view",
            "type": "function"
        },
        {
            "inputs": [
                {
                    "internalType": "uint256",
                    "name": "tokenId",
                    "type": "uint256"
                }
            ],
            "name": "tokenIsTransferable",
            "outputs": [
                {
                    "internalType": "bool",
                    "name": "",
                    "type": "bool"
                }
            ],
            "stateMutability": "view",
            "type": "function"
        },
        {
            "inputs": [
                {
                    "internalType": "uint256",
                    "name": "tokenId",
                    "type": "uint256"
                }
            ],
            "name": "tokenURI",
            "outputs": [
                {
                    "internalType": "string",
                    "name": "",
                    "type": "string"
                }
            ],
            "stateMutability": "view",
            "type": "function"
        },
        {
            "inputs": [
                {
                    "internalType": "address",
                    "name": "from",
                    "type": "address"
                },
                {
                    "internalType": "address",
                    "name": "to",
                    "type": "address"
                },
                {
                    "internalType": "uint256",
                    "name": "tokenId",
                    "type": "uint256"
                }
            ],
            "name": "transferFrom",
            "outputs": [],
            "stateMutability": "nonpayable",
            "type": "function"
        }
    ],
    "bytecode": "60806040523480156200001157600080fd5b5060405162001de838038062001de8833981016040819052620000349162000171565b838360006200004483826200028f565b5060016200005382826200028f565b5050600880546001600160a01b039485166001600160a01b0319918216179091556009805493909416921691909117909155506200035b915050565b634e487b7160e01b600052604160045260246000fd5b600082601f830112620000b757600080fd5b81516001600160401b0380821115620000d457620000d46200008f565b604051601f8301601f19908116603f01168101908282118183101715620000ff57620000ff6200008f565b816040528381526020925086838588010111156200011c57600080fd5b600091505b8382101562000140578582018301518183018401529082019062000121565b600093810190920192909252949350505050565b80516001600160a01b03811681146200016c57600080fd5b919050565b600080600080608085870312156200018857600080fd5b84516001600160401b0380821115620001a057600080fd5b620001ae88838901620000a5565b95506020870151915080821115620001c557600080fd5b50620001d487828801620000a5565b935050620001e56040860162000154565b9150620001f56060860162000154565b905092959194509250565b600181811c908216806200021557607f821691505b6020821081036200023657634e487b7160e01b600052602260045260246000fd5b50919050565b601f8211156200028a57600081815260208120601f850160051c81016020861015620002655750805b601f850160051c820191505b81811015620002865782815560010162000271565b5050505b505050565b81516001600160401b03811115620002ab57620002ab6200008f565b620002c381620002bc845462000200565b846200023c565b602080601f831160018114620002fb5760008415620002e25750858301515b600019600386901b1c1916600185901b17855562000286565b600085815260208120601f198616915b828110156200032c578886015182559484019460019091019084016200030b565b50858210156200034b5787850151600019600388901b60f8161c191681555b5050505050600190811b01905550565b611a7d806200036b6000396000f3fe608060405234801561001057600080fd5b506004361061012c5760003560e01c806370a08231116100ad578063b88d4fde11610071578063b88d4fde146102a0578063c87b56dd146102b3578063c8c8fca0146102c6578063e985e9c5146102d1578063efc81a8c146102e457600080fd5b806370a082311461022c57806375d0c0dc1461024d5780638ceb871c1461027257806395d89b4114610285578063a22cb4651461028d57600080fd5b80632b2afaa1116100f45780632b2afaa1146101c157806342842e0e146101e057806342966c68146101f357806354d7926f146102065780636352211e1461021957600080fd5b806301ffc9a71461013157806306fdde0314610159578063081812fc1461016e578063095ea7b31461019957806323b872dd146101ae575b600080fd5b61014461013f366004611510565b6102ec565b60405190151581526020015b60405180910390f35b61016161033e565b604051610150919061157d565b61018161017c366004611590565b6103d0565b6040516001600160a01b039091168152602001610150565b6101ac6101a73660046115c0565b6103f7565b005b6101ac6101bc3660046115ea565b610511565b604080518082019091526003815262534d5360e81b6020820152610161565b6101ac6101ee3660046115ea565b6105bf565b6101ac610201366004611590565b6105da565b6101ac610214366004611634565b61060b565b610181610227366004611590565b61073b565b61023f61023a366004611664565b610746565b604051908152602001610150565b604080518082019091526009815268534d5355414e43455360b81b6020820152610161565b610144610280366004611590565b6107cc565b61016161084c565b6101ac61029b36600461167f565b61085b565b6101ac6102ae3660046116c1565b61086a565b6101616102c1366004611590565b61091f565b61023f630966018081565b6101446102df36600461179d565b61092a565b61023f610958565b60006001600160e01b031982166380ac58cd60e01b148061031d57506001600160e01b03198216635b5e139f60e01b145b8061033857506301ffc9a760e01b6001600160e01b03198316145b92915050565b60606000805461034d906117d0565b80601f0160208091040260200160405190810160405280929190818152602001828054610379906117d0565b80156103c65780601f1061039b576101008083540402835291602001916103c6565b820191906000526020600020905b8154815290600101906020018083116103a957829003601f168201915b5050505050905090565b60006103db826109ad565b506000908152600460205260409020546001600160a01b031690565b600061040282610a0c565b9050806001600160a01b0316836001600160a01b0316036104745760405162461bcd60e51b815260206004820152602160248201527f4552433732313a20617070726f76616c20746f2063757272656e74206f776e656044820152603960f91b60648201526084015b60405180910390fd5b336001600160a01b03821614806104905750610490813361092a565b6105025760405162461bcd60e51b815260206004820152603d60248201527f4552433732313a20617070726f76652063616c6c6572206973206e6f7420746f60448201527f6b656e206f776e6572206f7220617070726f76656420666f7220616c6c000000606482015260840161046b565b61050c8383610a6c565b505050565b61051c335b82610ab7565b6105385760405162461bcd60e51b815260040161046b9061180a565b60405163233ae1c760e21b8152600481018290523090638ceb871c90602401602060405180830381865afa158015610574573d6000803e3d6000fd5b505050506040513d601f19601f82011682018060405250810190610598919061185b565b6105b45760405162461bcd60e51b815260040161046b90611878565b61050c838383610b16565b61050c8383836040518060200160405280600081525061086a565b6105e333610516565b6105ff5760405162461bcd60e51b815260040161046b906118b9565b61060881610b46565b50565b6008546001600160a01b031633146106705760405162461bcd60e51b815260206004820152602260248201527f534d5355414e4345533a2063616c6c6572206973206e6f74207468652061646d60448201526134b760f11b606482015260840161046b565b6000828152600a60205260409020544210156106de5760405162461bcd60e51b815260206004820152602760248201527f534d5355414e4345533a20746f6b656e206973206c6f636b656420666f7220746044820152663930b739b332b960c91b606482015260840161046b565b6040516354d7926f60e01b815260048101839052811515602482015230906354d7926f90604401600060405180830381600087803b15801561071f57600080fd5b505af1158015610733573d6000803e3d6000fd5b505050505050565b600061033882610a0c565b60006001600160a01b0382166107b05760405162461bcd60e51b815260206004820152602960248201527f4552433732313a2061646472657373207a65726f206973206e6f7420612076616044820152683634b21037bbb732b960b91b606482015260840161046b565b506001600160a01b031660009081526003602052604090205490565b60405163233ae1c760e21b8152600481018290526000903090638ceb871c90602401602060405180830381865afa15801561080b573d6000803e3d6000fd5b505050506040513d601f19601f8201168201806040525081019061082f919061185b565b80156103385750506000908152600a602052604090205442101590565b60606001805461034d906117d0565b610866338383610b60565b5050565b610875335b83610ab7565b6108915760405162461bcd60e51b815260040161046b9061180a565b60405163233ae1c760e21b8152600481018390523090638ceb871c90602401602060405180830381865afa1580156108cd573d6000803e3d6000fd5b505050506040513d601f19601f820116820180604052508101906108f1919061185b565b61090d5760405162461bcd60e51b815260040161046b90611878565b61091984848484610c2e565b50505050565b606061033882610c5f565b6001600160a01b03918216600090815260056020908152604080832093909416825291909152205460ff1690565b60008061096460075490565b60095490915061097d906001600160a01b031682610d67565b61098b630966018042611906565b6000828152600a60205260409020556109a8600780546001019055565b919050565b6000818152600260205260409020546001600160a01b03166106085760405162461bcd60e51b8152602060048201526018602482015277115490cdcc8c4e881a5b9d985b1a59081d1bdad95b88125160421b604482015260640161046b565b6000818152600260205260408120546001600160a01b0316806103385760405162461bcd60e51b8152602060048201526018602482015277115490cdcc8c4e881a5b9d985b1a59081d1bdad95b88125160421b604482015260640161046b565b610a768282610ef2565b60095460405182916001600160a01b03808616929116907f8c5be1e5ebec7d5bd14f71427d1e84f3dd0314c0f7b2291e5b200ac8c7c3b92590600090a45050565b600080610ac383610a0c565b9050806001600160a01b0316846001600160a01b03161480610aea5750610aea818561092a565b80610b0e5750836001600160a01b0316610b03846103d0565b6001600160a01b0316145b949350505050565b610b1f33610516565b610b3b5760405162461bcd60e51b815260040161046b906118b9565b61050c838383610f60565b610b4f816110c4565b6000908152600a6020526040812055565b816001600160a01b0316836001600160a01b031603610bc15760405162461bcd60e51b815260206004820152601960248201527f4552433732313a20617070726f766520746f2063616c6c657200000000000000604482015260640161046b565b6001600160a01b03838116600081815260056020908152604080832094871680845294825291829020805460ff191686151590811790915591519182527f17307eab39ab6107e8899845ad3d59bd9653f200f220920489ca2b5937696c31910160405180910390a3505050565b610c373361086f565b610c535760405162461bcd60e51b815260040161046b906118b9565b61091984848484611104565b6060610c6a826109ad565b60008281526006602052604081208054610c83906117d0565b80601f0160208091040260200160405190810160405280929190818152602001828054610caf906117d0565b8015610cfc5780601f10610cd157610100808354040283529160200191610cfc565b820191906000526020600020905b815481529060010190602001808311610cdf57829003601f168201915b505050505090506000610d1a60408051602081019091526000815290565b90508051600003610d2c575092915050565b815115610d5e578082604051602001610d46929190611927565b60405160208183030381529060405292505050919050565b610b0e84611137565b6001600160a01b038216610dbd5760405162461bcd60e51b815260206004820181905260248201527f4552433732313a206d696e7420746f20746865207a65726f2061646472657373604482015260640161046b565b6000818152600260205260409020546001600160a01b031615610e225760405162461bcd60e51b815260206004820152601c60248201527f4552433732313a20746f6b656e20616c7265616479206d696e74656400000000604482015260640161046b565b6000818152600260205260409020546001600160a01b031615610e875760405162461bcd60e51b815260206004820152601c60248201527f4552433732313a20746f6b656e20616c7265616479206d696e74656400000000604482015260640161046b565b6001600160a01b038216600081815260036020908152604080832080546001019055848352600290915280822080546001600160a01b0319168417905551839291907fddf252ad1be2c89b69c2b068fc378daa952ba7f163c4a11628f55a4df523b3ef908290a45050565b600081815260046020526040902080546001600160a01b0319166001600160a01b0384169081179091558190610f2782610a0c565b6001600160a01b03167f8c5be1e5ebec7d5bd14f71427d1e84f3dd0314c0f7b2291e5b200ac8c7c3b92560405160405180910390a45050565b826001600160a01b0316610f7382610a0c565b6001600160a01b031614610f995760405162461bcd60e51b815260040161046b90611956565b6001600160a01b038216610ffb5760405162461bcd60e51b8152602060048201526024808201527f4552433732313a207472616e7366657220746f20746865207a65726f206164646044820152637265737360e01b606482015260840161046b565b826001600160a01b031661100e82610a0c565b6001600160a01b0316146110345760405162461bcd60e51b815260040161046b90611956565b600081815260046020908152604080832080546001600160a01b03199081169091556001600160a01b0387811680865260038552838620805460001901905590871680865283862080546001019055868652600290945282852080549092168417909155905184937fddf252ad1be2c89b69c2b068fc378daa952ba7f163c4a11628f55a4df523b3ef91a4505050565b6110cd816111ab565b600081815260066020526040902080546110e6906117d0565b159050610608576000818152600660205260408120610608916114ac565b61110f848484610f60565b61111b84848484611240565b6109195760405162461bcd60e51b815260040161046b9061199b565b6060611142826109ad565b600061115960408051602081019091526000815290565b9050600081511161117957604051806020016040528060008152506111a4565b8061118384611341565b604051602001611194929190611927565b6040516020818303038152906040525b9392505050565b60006111b682610a0c565b90506111c182610a0c565b600083815260046020908152604080832080546001600160a01b03199081169091556001600160a01b0385168085526003845282852080546000190190558785526002909352818420805490911690555192935084927fddf252ad1be2c89b69c2b068fc378daa952ba7f163c4a11628f55a4df523b3ef908390a45050565b60006001600160a01b0384163b1561133657604051630a85bd0160e11b81526001600160a01b0385169063150b7a02906112849033908990889088906004016119ed565b6020604051808303816000875af19250505080156112bf575060408051601f3d908101601f191682019092526112bc91810190611a2a565b60015b61131c573d8080156112ed576040519150601f19603f3d011682016040523d82523d6000602084013e6112f2565b606091505b5080516000036113145760405162461bcd60e51b815260040161046b9061199b565b805181602001fd5b6001600160e01b031916630a85bd0160e11b149050610b0e565b506001949350505050565b6060600061134e836113d4565b600101905060008167ffffffffffffffff81111561136e5761136e6116ab565b6040519080825280601f01601f191660200182016040528015611398576020820181803683370190505b5090508181016020015b600019016f181899199a1a9b1b9c1cb0b131b232b360811b600a86061a8153600a85049450846113a257509392505050565b60008072184f03e93ff9f4daa797ed6e38ed64bf6a1f0160401b83106114135772184f03e93ff9f4daa797ed6e38ed64bf6a1f0160401b830492506040015b6d04ee2d6d415b85acef8100000000831061143f576d04ee2d6d415b85acef8100000000830492506020015b662386f26fc10000831061145d57662386f26fc10000830492506010015b6305f5e1008310611475576305f5e100830492506008015b612710831061148957612710830492506004015b6064831061149b576064830492506002015b600a83106103385760010192915050565b5080546114b8906117d0565b6000825580601f106114c8575050565b601f01602090049060005260206000209081019061060891905b808211156114f657600081556001016114e2565b5090565b6001600160e01b03198116811461060857600080fd5b60006020828403121561152257600080fd5b81356111a4816114fa565b60005b83811015611548578181015183820152602001611530565b50506000910152565b6000815180845261156981602086016020860161152d565b601f01601f19169290920160200192915050565b6020815260006111a46020830184611551565b6000602082840312156115a257600080fd5b5035919050565b80356001600160a01b03811681146109a857600080fd5b600080604083850312156115d357600080fd5b6115dc836115a9565b946020939093013593505050565b6000806000606084860312156115ff57600080fd5b611608846115a9565b9250611616602085016115a9565b9150604084013590509250925092565b801515811461060857600080fd5b6000806040838503121561164757600080fd5b82359150602083013561165981611626565b809150509250929050565b60006020828403121561167657600080fd5b6111a4826115a9565b6000806040838503121561169257600080fd5b61169b836115a9565b9150602083013561165981611626565b634e487b7160e01b600052604160045260246000fd5b600080600080608085870312156116d757600080fd5b6116e0856115a9565b93506116ee602086016115a9565b925060408501359150606085013567ffffffffffffffff8082111561171257600080fd5b818701915087601f83011261172657600080fd5b813581811115611738576117386116ab565b604051601f8201601f19908116603f01168101908382118183101715611760576117606116ab565b816040528281528a602084870101111561177957600080fd5b82602086016020830137600060208483010152809550505050505092959194509250565b600080604083850312156117b057600080fd5b6117b9836115a9565b91506117c7602084016115a9565b90509250929050565b600181811c908216806117e457607f821691505b60208210810361180457634e487b7160e01b600052602260045260246000fd5b50919050565b60208082526031908201527f4552433732313a207472616e736665722063616c6c6572206973206e6f74206f6040820152701ddb995c881b9bdc88185c1c1c9bdd9959607a1b606082015260800190565b60006020828403121561186d57600080fd5b81516111a481611626565b60208082526021908201527f4552433732313a20746f6b656e206973206e6f74207472616e7366657261626c6040820152606560f81b606082015260800190565b6020808252602d908201527f4552433732313a2063616c6c6572206973206e6f7420746f6b656e206f776e6560408201526c1c881bdc88185c1c1c9bdd9959609a1b606082015260800190565b8082018082111561033857634e487b7160e01b600052601160045260246000fd5b6000835161193981846020880161152d565b83519083019061194d81836020880161152d565b01949350505050565b60208082526025908201527f4552433732313a207472616e736665722066726f6d20696e636f72726563742060408201526437bbb732b960d91b606082015260800190565b60208082526032908201527f4552433732313a207472616e7366657220746f206e6f6e20455243373231526560408201527131b2b4bb32b91034b6b83632b6b2b73a32b960711b606082015260800190565b6001600160a01b0385811682528416602082015260408101839052608060608201819052600090611a2090830184611551565b9695505050505050565b600060208284031215611a3c57600080fd5b81516111a4816114fa56fea26469706673582212204bf365b84a7f3415d140b80ef14893526acd021dd729bb50ad400ad51081aa3c64736f6c63430008130033",
    "sourcePath": "/workspace/biosurf-api/contracts/contracts/ERC721.sol",
    "compiler": {
        "name": "solc",
        "version": "0.8.19+commit.7dd6d404"
    },
    "functionHashes": {
        "TRANSFER_LOCK_TIME()": "c8c8fca0",
        "approve(address,uint256)": "095ea7b3",
        "balanceOf(address)": "70a08231",
        "burn(uint256)": "42966c68",
        "contractName()": "75d0c0dc",
        "contractSymbol()": "2b2afaa1",
        "create()": "efc81a8c",
        "getApproved(uint256)": "081812fc",
        "isApprovedForAll(address,address)": "e985e9c5",
        "name()": "06fdde03",
        "ownerOf(uint256)": "6352211e",
        "safeTransferFrom(address,address,uint256)": "42842e0e",
        "safeTransferFrom(address,address,uint256,bytes)": "b88d4fde",
        "setApprovalForAll(address,bool)": "a22cb465",
        "setTokenTransferability(uint256,bool)": "54d7926f",
        "supportsInterface(bytes4)": "01ffc9a7",
        "symbol()": "95d89b41",
        "tokenIsTransferable(uint256)": "8ceb871c",
        "tokenURI(uint256)": "c87b56dd",
        "transferFrom(address,address,uint256)": "23b872dd"
    },
    "gasEstimates": {
        "creation": {
            "codeDepositCost": "1356200",
            "executionCost": "infinite",
            "totalCost": "infinite"
        },
        "external": {
            "TRANSFER_LOCK_TIME()": "261",
            "approve(address,uint256)": "infinite",
            "balanceOf(address)": "2612",
            "burn(uint256)": "infinite",
            "contractName()": "infinite",
            "contractSymbol()": "infinite",
            "create()": "106034",
            "getApproved(uint256)": "4792",
            "isApprovedForAll(address,address)": "infinite",
            "name()": "infinite",
            "ownerOf(uint256)": "infinite",
            "safeTransferFrom(address,address,uint256)": "infinite",
            "safeTransferFrom(address,address,uint256,bytes)": "infinite",
            "setApprovalForAll(address,bool)": "26823",
            "setTokenTransferability(uint256,bool)": "infinite",
            "supportsInterface(bytes4)": "534",
            "symbol()": "infinite",
            "tokenIsTransferable(uint256)": "infinite",
            "tokenURI(uint256)": "infinite",
            "transferFrom(address,address,uint256)": "infinite"
        },
        "internal": {
            "_approve(address,uint256)": "infinite",
            "_burn(uint256)": "infinite"
        }
    }
}